{
  "address": "0x08b057C034aBd74734aa3035Fb3E4Dd046eFEbA3",
  "abi": [
    {
      "inputs": [
        {
          "internalType": "contract ISmartRouter",
          "name": "swapRouter_",
          "type": "address"
        }
      ],
      "stateMutability": "nonpayable",
      "type": "constructor"
    },
    {
      "inputs": [],
      "name": "ApproveFailed",
      "type": "error"
    },
    {
      "inputs": [
        {
          "internalType": "uint256",
          "name": "currentTimestamp",
          "type": "uint256"
        },
        {
          "internalType": "uint256",
          "name": "deadline",
          "type": "uint256"
        }
      ],
      "name": "DeadlinePassed",
      "type": "error"
    },
    {
      "inputs": [],
      "name": "EmptySwap",
      "type": "error"
    },
    {
      "inputs": [
        {
          "internalType": "address",
          "name": "expected",
          "type": "address"
        },
        {
          "internalType": "address",
          "name": "actual",
          "type": "address"
        }
      ],
      "name": "InvalidCallbackSender",
      "type": "error"
    },
    {
      "inputs": [
        {
          "internalType": "address",
          "name": "expected",
          "type": "address"
        },
        {
          "internalType": "address",
          "name": "actual",
          "type": "address"
        }
      ],
      "name": "InvalidSwapEnd",
      "type": "error"
    },
    {
      "inputs": [
        {
          "internalType": "address",
          "name": "expected",
          "type": "address"
        },
        {
          "internalType": "address",
          "name": "actual",
          "type": "address"
        }
      ],
      "name": "InvalidSwapStart",
      "type": "error"
    },
    {
      "inputs": [
        {
          "internalType": "uint256",
          "name": "amountToPay",
          "type": "uint256"
        },
        {
          "internalType": "uint256",
          "name": "maxAmountIn",
          "type": "uint256"
        }
      ],
      "name": "MaxAmountInViolated",
      "type": "error"
    },
    {
      "inputs": [
        {
          "internalType": "uint256",
          "name": "errorCode",
          "type": "uint256"
        }
      ],
      "name": "RedeemFailed",
      "type": "error"
    },
    {
      "inputs": [
        {
          "internalType": "address",
          "name": "tokenX",
          "type": "address"
        },
        {
          "internalType": "address",
          "name": "tokenY",
          "type": "address"
        }
      ],
      "name": "UnexpectedFlashLoan",
      "type": "error"
    },
    {
      "inputs": [],
      "name": "ZeroAddressNotAllowed",
      "type": "error"
    },
    {
      "inputs": [],
      "name": "DEPLOYER",
      "outputs": [
        {
          "internalType": "address",
          "name": "",
          "type": "address"
        }
      ],
      "stateMutability": "view",
      "type": "function"
    },
    {
      "inputs": [],
      "name": "SWAP_ROUTER",
      "outputs": [
        {
          "internalType": "contract ISmartRouter",
          "name": "",
          "type": "address"
        }
      ],
      "stateMutability": "view",
      "type": "function"
    },
    {
      "inputs": [
        {
          "components": [
            {
              "internalType": "address",
              "name": "beneficiary",
              "type": "address"
            },
            {
              "internalType": "contract VTokenInterface",
              "name": "vTokenBorrowed",
              "type": "address"
            },
            {
              "internalType": "address",
              "name": "borrower",
              "type": "address"
            },
            {
              "internalType": "uint256",
              "name": "repayAmount",
              "type": "uint256"
            },
            {
              "internalType": "contract VTokenInterface",
              "name": "vTokenCollateral",
              "type": "address"
            },
            {
              "internalType": "bytes",
              "name": "path",
              "type": "bytes"
            }
          ],
          "internalType": "struct LiquidationOperator.FlashLiquidationParameters",
          "name": "params",
          "type": "tuple"
        },
        {
          "internalType": "uint256",
          "name": "deadline",
          "type": "uint256"
        }
      ],
      "name": "liquidate",
      "outputs": [],
      "stateMutability": "nonpayable",
      "type": "function"
    },
    {
      "inputs": [
        {
          "internalType": "uint256",
          "name": "fee0",
          "type": "uint256"
        },
        {
          "internalType": "uint256",
          "name": "fee1",
          "type": "uint256"
        },
        {
          "internalType": "bytes",
          "name": "data",
          "type": "bytes"
        }
      ],
      "name": "pancakeV3FlashCallback",
      "outputs": [],
      "stateMutability": "nonpayable",
      "type": "function"
    },
    {
      "inputs": [
        {
          "internalType": "int256",
          "name": "amount0Delta",
          "type": "int256"
        },
        {
          "internalType": "int256",
          "name": "amount1Delta",
          "type": "int256"
        },
        {
          "internalType": "bytes",
          "name": "data",
          "type": "bytes"
        }
      ],
      "name": "pancakeV3SwapCallback",
      "outputs": [],
      "stateMutability": "nonpayable",
      "type": "function"
    }
  ],
  "transactionHash": "0x82c1b67d12cf680e7307572a90f9a233e18b6eac4df49ba0b78f6a850ca3e16d",
  "args": [
    "0x1b81D678ffb9C0263b24A97847620C99d213eB14"
  ],
  "numDeployments": 1,
  "solcInputHash": "0839ae85096dad65bb606dc49a2f82ea",
  "bytecode": "0x60c060405234801561001057600080fd5b506040516121f43803806121f483398101604081905261002f916100fa565b80610039816100bb565b6001600160a01b038116608081905260408051631abe729160e31b8152905163d5f39488916004808201926020929091908290030181865afa158015610083573d6000803e3d6000fd5b505050506040513d601f19601f820116820180604052508101906100a791906100fa565b6001600160a01b031660a0525061011e9050565b6001600160a01b0381166100e2576040516342bcdf7f60e11b815260040160405180910390fd5b50565b6001600160a01b03811681146100e257600080fd5b60006020828403121561010c57600080fd5b8151610117816100e5565b9392505050565b60805160a05161208961016b60003960008181609c0152818161072101528181610d3e01526113bc01526000818160df015281816101bd01528181610218015261029601526120896000f3fe608060405234801561001057600080fd5b50600436106100575760003560e01c806323a69e751461005c57806334b361d514610071578063a1d4833614610084578063c1b8411a14610097578063c6005893146100da575b600080fd5b61006f61006a366004611710565b610101565b005b61006f61007f366004611790565b6102ee565b61006f6100923660046118eb565b610602565b6100be7f000000000000000000000000000000000000000000000000000000000000000081565b6040516001600160a01b03909116815260200160405180910390f35b6100be7f000000000000000000000000000000000000000000000000000000000000000081565b600061010f82840184611961565b905061011e816040015161071a565b60008513158015610130575060008413155b1561014e5760405163b494d17560e01b815260040160405180910390fd5b60008060008713156101695750506040810151518590610180565b600086131561018057505060408101516020015184905b6000806101908560200151610786565b915091506101a1856000015161094a565b156102c25760006101b58660000151610984565b90506101e2837f0000000000000000000000000000000000000000000000000000000000000000846109bb565b604080516080810182528281523360208201528082018790526060810184905290516304dc09a360e11b81526001600160a01b037f000000000000000000000000000000000000000000000000000000000000000016916309b813469161024c9190600401611aa7565b6020604051808303816000875af115801561026b573d6000803e3d6000fd5b505050506040513d601f19601f8201168201806040525081019061028f9190611af5565b506102bc837f000000000000000000000000000000000000000000000000000000000000000060006109bb565b506102d6565b6102d66001600160a01b0384163386610aa7565b6102e38560200151610afe565b505050505050505050565b6102f781610b29565b60006103096040840160208501611b0e565b6001600160a01b0316636f307dc36040518163ffffffff1660e01b8152600401602060405180830381865afa158015610346573d6000803e3d6000fd5b505050506040513d601f19601f8201168201806040525081019061036a9190611b32565b9050600061037e60a0850160808601611b0e565b6001600160a01b0316636f307dc36040518163ffffffff1660e01b8152600401602060405180830381865afa1580156103bb573d6000803e3d6000fd5b505050506040513d601f19601f820116820180604052508101906103df9190611b32565b9050600060001985606001350361048f576104006040860160208701611b0e565b6001600160a01b03166317bfdfbc61041e6060880160408901611b0e565b6040516001600160e01b031960e084901b1681526001600160a01b0390911660048201526024016020604051808303816000875af1158015610464573d6000803e3d6000fd5b505050506040513d601f19601f820116820180604052508101906104889190611af5565b9050610496565b5060608401355b6104ac6104a660a0870187611b4f565b85610b56565b6040805160e08101909152600090806104c86020890189611b0e565b6001600160a01b03168152602001856001600160a01b031681526020018760200160208101906104f89190611b0e565b6001600160a01b031681526020016105166060890160408a01611b0e565b6001600160a01b039081168252602082018590528516604082015260600161054460a0890160808a01611b0e565b6001600160a01b03168152509050836001600160a01b0316836001600160a01b0316036105aa576105a5606087013561058060a0890189611b4f565b846040516020016105919190611b9d565b604051602081830303815290604052610be4565b6105fa565b6105c06105ba60a0880188611b4f565b85610c49565b6105fa60608701356105d560a0890189611b4f565b846040516020016105e69190611b9d565b604051602081830303815290604052610cde565b505050505050565b6000818060200190518101906106189190611c5f565b9050610627816060015161071a565b6000806106378360400151610786565b9150915082600001516001600160a01b0316826001600160a01b03161461068c578251604051631d8c7e9b60e11b81526001600160a01b03808516600483015290911660248201526044015b60405180910390fd5b6000861561069a578661069c565b855b905060008185602001516106b09190611d49565b9050828111156106dd57604051631f2afbdb60e01b81526004810182905260248101849052604401610683565b610703338387602001516106f19190611d49565b87516001600160a01b03169190610aa7565b6107108560400151610afe565b5050505050505050565b60006107467f000000000000000000000000000000000000000000000000000000000000000083610ec2565b9050336001600160a01b038216146107825760405163a415aad560e01b81526001600160a01b0382166004820152336024820152604401610683565b5050565b60008060008380602001905181019061079f9190611d5c565b90506107b88160200151826040015183608001516109bb565b6040808201516060830151608084015160c08501519351637af1e23160e11b81526001600160a01b03928316600482015260248101919091529281166044840152169063f5e3c462906064016020604051808303816000875af1158015610823573d6000803e3d6000fd5b505050506040513d601f19601f820116820180604052508101906108479190611af5565b5061085c8160200151826040015160006109bb565b60c08101516040516370a0823160e01b81523060048201526108d391906001600160a01b038216906370a0823190602401602060405180830381865afa1580156108aa573d6000803e3d6000fd5b505050506040513d601f19601f820116820180604052508101906108ce9190611af5565b610fab565b60a08101516040516370a0823160e01b81523060048201526001600160a01b038216906370a0823190602401602060405180830381865afa15801561091c573d6000803e3d6000fd5b505050506040513d601f19601f820116820180604052508101906109409190611af5565b9250925050915091565b600061095860036014611d49565b6014610965600382611d49565b61096f9190611d49565b6109799190611d49565b825110159050919050565b60606109b561099560036014611d49565b6109a160036014611d49565b84516109ad9190611e0d565b84919061103d565b92915050565b604080516001600160a01b038481166024830152604480830185905283518084039091018152606490920183526020820180516001600160e01b031663095ea7b360e01b179052915190916000918291871690610a19908590611e20565b6000604051808303816000865af19150503d8060008114610a56576040519150601f19603f3d011682016040523d82523d6000602084013e610a5b565b606091505b5091509150811580610a895750805115801590610a89575080806020019051810190610a879190611e3c565b155b156105fa57604051633e3f8f7360e01b815260040160405180910390fd5b604080516001600160a01b038416602482015260448082018490528251808303909101815260649091019091526020810180516001600160e01b031663a9059cbb60e01b179052610af990849061114a565b505050565b600081806020019051810190610b149190611d5c565b90506107828160a0015130836000015161121f565b42811015610b535760405163041f95d160e51b815242600482015260248101829052604401610683565b50565b6000610b9784848080601f016020809104026020016040519081016040528093929190818152602001838380828437600092018290525092506112a9915050565b9050816001600160a01b0316816001600160a01b031614610bde576040516339569fd760e11b81526001600160a01b03808416600483015282166024820152604401610683565b50505050565b6000806000610c2886868080601f01602080910402602001604051908101604052809392919081815260200183838082843760009201919091525061130e92505050565b9250925092506000610c3b84848461134a565b9050610710888583886113b5565b6000610c9784848080601f016020809104026020016040519081016040528093929190818152602001838380828437600092019190915250610c92925060149150879050611e0d565b6112a9565b9050816001600160a01b0316816001600160a01b031614610bde57604051632d5a499f60e01b81526001600160a01b03808416600483015282166024820152604401610683565b6000806000610d2286868080601f01602080910402602001604051908101604052809392919081815260200183838082843760009201919091525061130e92505050565b9250925092506000610d3584848461134a565b90506000610d637f000000000000000000000000000000000000000000000000000000000000000083610ec2565b9050600060405180606001604052808a8a8080601f01602080910402602001604051908101604052809392919081815260200183838082843760009201919091525050509082525060208082018a905260409182018690529051610dc8929101611e5e565b60405160208183030381529060405290506000866001600160a01b031684602001516001600160a01b0316149050600081610e2157610e1c600173fffd8963efd1fc6a506488495d951d5263988d26611ed6565b610e31565b610e316401000276a36001611efd565b9050836001600160a01b031663128acb0830848f610e4e90611f1d565b85886040518663ffffffff1660e01b8152600401610e70959493929190611f39565b60408051808303816000875af1158015610e8e573d6000803e3d6000fd5b505050506040513d601f19601f82011682018060405250810190610eb29190611f74565b5050505050505050505050505050565b600081602001516001600160a01b031682600001516001600160a01b031610610eea57600080fd5b815160208084015160408086015181516001600160a01b0395861681860152949092168482015262ffffff90911660608085019190915281518085038201815260808501909252815191909201206001600160f81b031960a08401529085901b6bffffffffffffffffffffffff191660a183015260b58201527f6ce8eb472fa82df5469c6ab6d485f17c3ad13c8cd7af59b3d4a8026c5ce0f7e260d582015260f50160408051601f1981840301815291905280516020909101209392505050565b60405163db006a7560e01b8152600481018290526000906001600160a01b0384169063db006a75906024016020604051808303816000875af1158015610ff5573d6000803e3d6000fd5b505050506040513d601f19601f820116820180604052508101906110199190611af5565b90508015610af95760405163eeddaac560e01b815260048101829052602401610683565b60608161104b81601f611d49565b101561108a5760405162461bcd60e51b815260206004820152600e60248201526d736c6963655f6f766572666c6f7760901b6044820152606401610683565b6110948284611d49565b845110156110d85760405162461bcd60e51b8152602060048201526011602482015270736c6963655f6f75744f66426f756e647360781b6044820152606401610683565b6060821580156110f75760405191506000825260208201604052611141565b6040519150601f8416801560200281840101858101878315602002848b0101015b81831015611130578051835260209283019201611118565b5050858452601f01601f1916604052505b50949350505050565b600061119f826040518060400160405280602081526020017f5361666545524332303a206c6f772d6c6576656c2063616c6c206661696c6564815250856001600160a01b03166114d59092919063ffffffff16565b90508051600014806111c05750808060200190518101906111c09190611e3c565b610af95760405162461bcd60e51b815260206004820152602a60248201527f5361666545524332303a204552433230206f7065726174696f6e20646964206e6044820152691bdd081cdd58d8d9595960b21b6064820152608401610683565b6040516370a0823160e01b81526001600160a01b038381166004830152600091908516906370a0823190602401602060405180830381865afa158015611269573d6000803e3d6000fd5b505050506040513d601f19601f8201168201806040525081019061128d9190611af5565b90508015610bde57610bde6001600160a01b0385168383610aa7565b60006112b6826014611d49565b835110156112fe5760405162461bcd60e51b8152602060048201526015602482015274746f416464726573735f6f75744f66426f756e647360581b6044820152606401610683565b500160200151600160601b900490565b6000808061131c84826112a9565b92506113298460146114ec565b905061134161133a60036014611d49565b85906112a9565b91509193909250565b6040805160608101825260008082526020820181905291810191909152826001600160a01b0316846001600160a01b03161115611385579192915b50604080516060810182526001600160a01b03948516815292909316602083015262ffffff169181019190915290565b60006113e17f000000000000000000000000000000000000000000000000000000000000000084610ec2565b9050806001600160a01b031663490e6cbc30866001600160a01b031686600001516001600160a01b031614611417576000611419565b875b876001600160a01b031687602001516001600160a01b03161461143d57600061143f565b885b60405180608001604052808a6001600160a01b031681526020018b8152602001888152602001898152506040516020016114799190611f98565b6040516020818303038152906040526040518563ffffffff1660e01b81526004016114a79493929190612009565b600060405180830381600087803b1580156114c157600080fd5b505af11580156102e3573d6000803e3d6000fd5b60606114e48484600085611597565b949350505050565b6000816114fa816003611d49565b101561153c5760405162461bcd60e51b8152602060048201526011602482015270746f55696e7432345f6f766572666c6f7760781b6044820152606401610683565b611547826003611d49565b8351101561158e5760405162461bcd60e51b8152602060048201526014602482015273746f55696e7432345f6f75744f66426f756e647360601b6044820152606401610683565b50016003015190565b6060824710156115f85760405162461bcd60e51b815260206004820152602660248201527f416464726573733a20696e73756666696369656e742062616c616e636520666f6044820152651c8818d85b1b60d21b6064820152608401610683565b600080866001600160a01b031685876040516116149190611e20565b60006040518083038185875af1925050503d8060008114611651576040519150601f19603f3d011682016040523d82523d6000602084013e611656565b606091505b509150915061166787838387611672565b979650505050505050565b606083156116e15782516000036116da576001600160a01b0385163b6116da5760405162461bcd60e51b815260206004820152601d60248201527f416464726573733a2063616c6c20746f206e6f6e2d636f6e74726163740000006044820152606401610683565b50816114e4565b6114e483838151156116f65781518083602001fd5b8060405162461bcd60e51b81526004016106839190612040565b6000806000806060858703121561172657600080fd5b8435935060208501359250604085013567ffffffffffffffff8082111561174c57600080fd5b818701915087601f83011261176057600080fd5b81358181111561176f57600080fd5b88602082850101111561178157600080fd5b95989497505060200194505050565b600080604083850312156117a357600080fd5b823567ffffffffffffffff8111156117ba57600080fd5b830160c081860312156117cc57600080fd5b946020939093013593505050565b634e487b7160e01b600052604160045260246000fd5b6040516060810167ffffffffffffffff81118282101715611813576118136117da565b60405290565b6040516080810167ffffffffffffffff81118282101715611813576118136117da565b604051601f8201601f1916810167ffffffffffffffff81118282101715611865576118656117da565b604052919050565b600067ffffffffffffffff821115611887576118876117da565b50601f01601f191660200190565b600082601f8301126118a657600080fd5b81356118b96118b48261186d565b61183c565b8181528460208386010111156118ce57600080fd5b816020850160208301376000918101602001919091529392505050565b60008060006060848603121561190057600080fd5b8335925060208401359150604084013567ffffffffffffffff81111561192557600080fd5b61193186828701611895565b9150509250925092565b6001600160a01b0381168114610b5357600080fd5b62ffffff81168114610b5357600080fd5b60006020828403121561197357600080fd5b813567ffffffffffffffff8082111561198b57600080fd5b9083019081850360a08112156119a057600080fd5b6119a86117f0565b8335838111156119b757600080fd5b6119c388828701611895565b8252506020840135838111156119d857600080fd5b6119e488828701611895565b6020830152506060603f19830112156119fc57600080fd5b611a046117f0565b925060408401359150611a168261193b565b908252606083013590611a288261193b565b81602084015260808401359350611a3e84611950565b8360408401528260408201528094505050505092915050565b60005b83811015611a72578181015183820152602001611a5a565b50506000910152565b60008151808452611a93816020860160208601611a57565b601f01601f19169290920160200192915050565b602081526000825160806020840152611ac360a0840182611a7b565b905060018060a01b03602085015116604084015260408401516060840152606084015160808401528091505092915050565b600060208284031215611b0757600080fd5b5051919050565b600060208284031215611b2057600080fd5b8135611b2b8161193b565b9392505050565b600060208284031215611b4457600080fd5b8151611b2b8161193b565b6000808335601e19843603018112611b6657600080fd5b83018035915067ffffffffffffffff821115611b8157600080fd5b602001915036819003821315611b9657600080fd5b9250929050565b81516001600160a01b0390811682526020808401518216908301526040808401518216908301526060808401518216908301526080808401519083015260a08381015182169083015260c092830151169181019190915260e00190565b8051611c058161193b565b919050565b600060608284031215611c1c57600080fd5b611c246117f0565b90508151611c318161193b565b81526020820151611c418161193b565b60208201526040820151611c5481611950565b604082015292915050565b60006020808385031215611c7257600080fd5b825167ffffffffffffffff80821115611c8a57600080fd5b9084019060c08287031215611c9e57600080fd5b611ca6611819565b8251611cb18161193b565b81528284015184820152604083015182811115611ccd57600080fd5b83019150601f82018713611ce057600080fd5b8151611cee6118b48261186d565b8181528886838601011115611d0257600080fd5b611d1182878301888701611a57565b604083015250611d248760608501611c0a565b60608201529695505050505050565b634e487b7160e01b600052601160045260246000fd5b808201808211156109b5576109b5611d33565b600060e08284031215611d6e57600080fd5b60405160e0810181811067ffffffffffffffff82111715611d9157611d916117da565b6040528251611d9f8161193b565b81526020830151611daf8161193b565b60208201526040830151611dc28161193b565b60408201526060830151611dd58161193b565b606082015260808381015190820152611df060a08401611bfa565b60a0820152611e0160c08401611bfa565b60c08201529392505050565b818103818111156109b5576109b5611d33565b60008251611e32818460208701611a57565b9190910192915050565b600060208284031215611e4e57600080fd5b81518015158114611b2b57600080fd5b602081526000825160a06020840152611e7a60c0840182611a7b565b90506020840151601f19848303016040850152611e978282611a7b565b60408681015180516001600160a01b03908116606089015260208201511660808801529081015162ffffff1660a087015290925090505b509392505050565b6001600160a01b03828116828216039080821115611ef657611ef6611d33565b5092915050565b6001600160a01b03818116838216019080821115611ef657611ef6611d33565b6000600160ff1b8201611f3257611f32611d33565b5060000390565b6001600160a01b0386811682528515156020830152604082018590528316606082015260a06080820181905260009061166790830184611a7b565b60008060408385031215611f8757600080fd5b505080516020909101519092909150565b6020815260018060a01b038251166020820152602082015160408201526000604083015160c06060840152611fd060e0840182611a7b565b606085015180516001600160a01b03908116608087015260208201511660a0860152604081015162ffffff1660c0860152909150611ece565b60018060a01b03851681528360208201528260408201526080606082015260006120366080830184611a7b565b9695505050505050565b602081526000611b2b6020830184611a7b56fea26469706673582212205357e26b8044bf2108ce7f62813421c42a32e2b622934a4ec7d1c892e040c7a964736f6c63430008190033",
  "devdoc": {
    "errors": {
      "InvalidCallbackSender(address,address)": [
        {
          "params": {
            "actual": "Actual callback sender",
            "expected": "Expected callback sender (pool address computed based on the pool key)"
          }
        }
      ],
      "InvalidSwapEnd(address,address)": [
        {
          "params": {
            "actual": "Provided swap path end",
            "expected": "Expected swap path end"
          }
        }
      ],
      "InvalidSwapStart(address,address)": [
        {
          "params": {
            "actual": "Provided swap path start",
            "expected": "Expected swap path start"
          }
        }
      ]
    },
    "kind": "dev",
    "methods": {
      "constructor": {
        "params": {
          "swapRouter_": "PancakeSwap SmartRouter contract"
        }
      },
      "liquidate((address,address,address,uint256,address,bytes),uint256)": {
        "params": {
          "params": "Liquidation parameters"
        }
      },
      "pancakeV3FlashCallback(uint256,uint256,bytes)": {
        "params": {
          "data": "Callback data containing an Envelope structure",
          "fee0": "Fee amount in pool's token0",
          "fee1": "Fee amount in pool's token1"
        }
      },
      "pancakeV3SwapCallback(int256,int256,bytes)": {
        "params": {
          "amount0Delta": "Amount of pool's token0 to repay for the flash swap (negative if no need to repay this token)",
          "amount1Delta": "Amount of pool's token1 to repay for the flash swap (negative if no need to repay this token)",
          "data": "Callback data containing an Envelope structure"
        }
      }
    },
    "version": 1
  },
  "userdoc": {
    "errors": {
      "ApproveFailed()": [
        {
          "notice": "Thrown if a contract is unable to approve a transfer"
        }
      ],
      "DeadlinePassed(uint256,uint256)": [
        {
          "notice": "Thrown if the deadline has passed"
        }
      ],
      "EmptySwap()": [
        {
          "notice": "Thrown if the swap callback is called with unexpected or zero amount of tokens"
        }
      ],
      "InvalidCallbackSender(address,address)": [
        {
          "notice": "Thrown if operation callback is called by a non-PancakeSwap contract"
        }
      ],
      "InvalidSwapEnd(address,address)": [
        {
          "notice": "Thrown if the provided swap path end does not correspond to the expected one"
        }
      ],
      "InvalidSwapStart(address,address)": [
        {
          "notice": "Thrown if the provided swap path start does not correspond to the expected one"
        }
      ],
      "MaxAmountInViolated(uint256,uint256)": [
        {
          "notice": "Thrown if maxAmountIn threshold is violated while repaying a flash loan"
        }
      ],
      "RedeemFailed(uint256)": [
        {
          "notice": "Thrown if vToken.redeem(...) returns a nonzero error code"
        }
      ],
      "UnexpectedFlashLoan(address,address)": [
        {
          "notice": "Thrown if the application tries a flash loan with token to repay != borrowed token"
        }
      ],
      "ZeroAddressNotAllowed()": [
        {
          "notice": "Thrown if the supplied address is a zero address where it is not allowed"
        }
      ]
    },
    "kind": "user",
    "methods": {
      "DEPLOYER()": {
        "notice": "The PancakeSwap deployer contract"
      },
      "SWAP_ROUTER()": {
        "notice": "The PancakeSwap SmartRouter contract"
      },
      "liquidate((address,address,address,uint256,address,bytes),uint256)": {
        "notice": "Liquidates a borrower's position using flash swap or a flash loan"
      },
      "pancakeV3FlashCallback(uint256,uint256,bytes)": {
        "notice": "Callback called by PancakeSwap pool during a flash loan. Does a sanity check  that token to repay is equal to the borrowed token, and repays the flash loan, capped  to the specified maxAmountIn. Invokes _onFlashCompleted once the flash loan is repaid."
      },
      "pancakeV3SwapCallback(int256,int256,bytes)": {
        "notice": "Callback called by PancakeSwap pool during flash swap conversion"
      }
    },
    "version": 1
  },
  "storageLayout": {
    "storage": [],
    "types": null
  }
}